:100000000C9463000C948B000C948B000C948B006C
:100010000C948B000C948B000C948B000C948B0034
:100020000C948B000C948B000C948B000C948B0024
:100030000C948B000C948B000C948B000C948B0014
:100040000C944D030C948B000C94BD030C949703FB
:100050000C948B000C948B000C948B000C948B00F4
:100060000C948B000C948B000000000024002700EF
:100070002A0000000000250028002B0004040404CE
:100080000404040402020202020203030303030342
:10009000020203010204081020408001020408103B
:1000A00020010204081020408040000000090003E5
:1000B000020000040508000000000000000000002D
:1000C0000000EF03560711241FBECFEFD4E0DEBFC0
:1000D000CDBF24E0AAE2B1E001C01D92A431B20775
:1000E000E1F711E0A0E0B1E0E6EFFBE102C005902E
:1000F0000D92AA32B107D9F710E0C2E6D0E004C0F1
:100100002197FE010E94D30BC136D107C9F70E9487
:1001100028040C94EE0D0C94000090E0FC01E655D0
:10012000FF4F2491FC01ED56FF4F3491FC01E45840
:10013000FF4FE491EE23C9F0222339F0243001F17E
:10014000A8F4223069F1233079F1F0E0EE0FFF1FBF
:10015000EE58FF4FA591B4918FB7F894EC916111CF
:1001600026C030953E233C938FBF0895283071F010
:10017000293091F0253049F7809180008F7D03C0B0
:10018000809180008F7780938000DFCF8091B000D6
:100190008F778093B000D9CF8091B0008F7DF9CF59
:1001A00084B58F7784BDD1CF84B58F7DFBCF3E2BB7
:1001B000DACFCF93DF9390E0FC01ED56FF4F24910F
:1001C00084589F4FFC0184918823D1F090E0880FE0
:1001D000991FFC01E859FF4FA591B491FC01EE581D
:1001E000FF4FC591D49161110EC09FB7F8948C91C7
:1001F000E22FE0958E238C932881E223E8839FBF32
:10020000DF91CF9108958FB7F894EC91E22BEC93A6
:100210008FBFF6CF8E50806480937C0080917A00EF
:10022000806480937A0080917A0086FDFCCF809173
:1002300078009091790008953FB7F8948091D101AA
:100240009091D201A091D301B091D40126B5A89B81
:1002500005C02F3F19F00196A11DB11D3FBFBA2F58
:10026000A92F982F8827BC01CD01620F711D811D18
:10027000911D43E0660F771F881F991F4A95D1F79C
:1002800008950895AF92BF92CF92DF92EF92FF92BE
:100290000F931F93CF93DF936C017B018B01040FAE
:1002A000151FEB015E01AE18BF08C017D10759F04A
:1002B0006991D601ED91FC910190F081E02DC6018C
:1002C0000995892B79F7C501DF91CF911F910F9186
:1002D000FF90EF90DF90CF90BF90AF900895FC011A
:1002E000538D448D252F30E0842F90E0821B930B9B
:1002F000541710F0CF96089501970895FC01918D41
:10030000828D981761F0A28DAE0FBF2FB11D5D9643
:100310008C91928D9F5F9F73928F90E008958FEFE5
:100320009FEF0895FC01918D828D981731F0828D99
:10033000E80FF11D858D90E008958FEF9FEF0895F0
:10034000FC01918D228D892F90E0805C9F4F821B54
:1003500091098F73992708958BE693E00E94A0017D
:1003600021E0892B09F420E0822F089580E090E0BD
:10037000892B29F00E94AC0181110C940000089592
:10038000FC01A48DA80FB92FB11DA35ABF4F2C910A
:10039000848D90E001968F739927848FA689B78901
:1003A0002C93A089B1898C91837080648C93938DF8
:1003B000848D981306C00288F389E02D80818F7D9B
:1003C00080830895EF92FF920F931F93CF93DF9353
:1003D000EC0181E0888F9B8D8C8D98131AC0E88981
:1003E000F989808185FF15C09FB7F894EE89FF8950
:1003F0006083E889F98980818370806480839FBFEE
:1004000081E090E0DF91CF911F910F91FF90EF90ED
:100410000895F62E0B8D10E00F5F1F4F0F731127FD
:10042000E02E8C8D8E110CC00FB607FCFACFE88938
:10043000F989808185FFF5CFCE010E94C001F1CFFF
:10044000EB8DEC0FFD2FF11DE35AFF4FF0829FB7AC
:10045000F8940B8FEA89FB8980818062CFCFCF939C
:10046000DF93EC01888D8823B9F0AA89BB89E889DC
:10047000F9898C9185FD03C0808186FD0DC00FB682
:1004800007FCF7CF8C9185FFF2CF808185FFEDCF00
:10049000CE010E94C001E9CFDF91CF910895CF93A3
:1004A000DF93EC01BC01990F880B990B0E943D0A68
:1004B00020E030E040E05FE3D7FD07C00E94090B79
:1004C0000E94750BDF91CF9108950E94080BF8CF21
:1004D00008958EBD00000DB407FEFDCF8EB50895C2
:1004E0008CBD9DBD0895EF92FF920F931F93CF9304
:1004F000DF9300D0CDB7DEB77B01BC0185ED91E085
:100500000E94C40D90E080E001E010E025ED31E0B4
:10051000E016F1067CF0AE014F5F5F4F6AE171E0DB
:10052000C9010E948107009729F00F5F1F4F30E03B
:1005300020E0EECF0F900F90DF91CF911F910F91A0
:10054000FF90EF900895009769F0FC010190002062
:10055000E9F73197AF01481B590BBC018BE693E0DB
:100560000C94420190E080E00895FC01808191812B
:10057000009711F00C945A0760E070E0CB010895E9
:100580000F931F93CF93DF938C01EB01FC018081CC
:1005900091810097E1F06881798161157105A9F079
:1005A000428153812C813D814217530770F00E9494
:1005B000C40D8C819D81F801958384831D821C82EA
:1005C000DF91CF911F910F9108950E94750C888142
:1005D0009981F801918380838A819B8193838283AF
:1005E0008C819D8195838483198218821B821A8253
:1005F000E5CFFC0180819181009711F00C94750C7E
:100600000895EF92FF920F931F93CF93DF93EC0126
:10061000198218821B821A821D821C826115710543
:10062000A9F17B01FB0101900020E9F731978F01CF
:10063000061B170BB8016F5F7F4F90E080E00E94B0
:10064000FE0C0097B9F0998388831B830A832C8161
:100650003D81232B11F4FC0110821D830C83B70113
:1006600088819981DF91CF911F910F91FF90EF9039
:100670000C94C40D88819981009711F00E94750C2B
:10068000198218821D821C821B821A82DF91CF91EF
:100690001F910F91FF90EF9008951F920F920FB648
:1006A0000F9211242F933F938F939F93AF93BF93F8
:1006B0008091CD019091CE01A091CF01B091D00158
:1006C0003091CC0126E0230F2D3768F129E8230F64
:1006D0000396A11DB11D2093CC018093CD01909371
:1006E000CE01A093CF01B093D0018091D101909120
:1006F000D201A091D301B091D4010196A11DB11DE9
:100700008093D1019093D201A093D301B093D401EF
:10071000BF91AF919F918F913F912F910F900FBEFD
:100720000F901F9018950296A11DB11DD4CF1F9256
:100730000F920FB60F9211242F933F934F935F9315
:100740006F937F938F939F93AF93BF93EF93FF9399
:100750008BE693E00E94C001FF91EF91BF91AF91B2
:100760009F918F917F916F915F914F913F912F91C9
:100770000F900FBE0F901F9018951F920F920FB6FB
:100780000F9211242F938F939F93EF93FF93E091F8
:100790007B03F0917C038081E0918103F0918203DF
:1007A00082FD1BC09081809184038F5F8F732091A5
:1007B0008503821741F0E0918403F0E0E559FC4F96
:1007C000958F80938403FF91EF919F918F912F914B
:1007D0000F900FBE0F901F9018958081F4CFEBE61D
:1007E000F3E01382128288EE93E0A0E0B0E084830D
:1007F0009583A683B7838CE091E09183808385EC19
:1008000090E09587848784EC90E09787868780ECDA
:1008100090E0918B808B81EC90E0938B828B82ECCB
:1008200090E0958B848B86EC90E0978B868B118E75
:10083000128E138E148E6BE171E08AE094E00E94B8
:100840000103E8E0F4E084E5808381E0818308959A
:10085000CF93DF93CDB7DEB72C970FB6F894DEBFFA
:100860000FBECDBF789484B5836084BD85B58360A9
:1008700085BD80916E00816080936E0082E08093E0
:10088000810080918100816080938100809180004F
:100890008160809380008091B10084608093B1007A
:1008A0008091B00081608093B00086E880937A00E8
:1008B0001092C10090E080E00E94C90A8093660017
:1008C0001FB7F89480912A01811127C0E6E8F0E073
:1008D0008491EDE9F0E09491E82FF0E0EE0FFF1F36
:1008E000E859FF4FA591B491EC91E92321F461E01F
:1008F0008AE00E948D0061E08AE00E94D9008CB5F8
:1009000080618CBD8CB580648CBD61E08DE00E94FF
:10091000D90061E08BE00E94D90080912A018F5FAD
:1009200080932A011FBFE0917B03F0917C0382E05A
:100930008083E0917703F09178031082E09179034E
:10094000F0917A0389E1808310928303E0917F0321
:10095000F091800386E08083E0917D03F0917E0337
:10096000808188698083E0917D03F0917E0380819E
:100970008F7D808360E080E00E94D90061E083E0A9
:100980000E94D90061E084E00E94D90061E082E029
:100990000E94D90061E083E00E948D0061E084E064
:1009A0000E948D0061E082E00E948D0060E082E0A4
:1009B0000E948D0061E082E00E948D000E941C0177
:1009C0004B015C01A8EECA2EA3E0DA2EE12CF12C3B
:1009D0000E941C01681979098A099B09683E7340C5
:1009E00081059105A8F321E0C21AD108E108F108B8
:1009F00088EE880E83E0981EA11CB11CC114D1049E
:100A0000E104F10429F780910804909109040E94FF
:100A1000700260E082E00E948D008CE10E94690219
:100A200082E00E94690261E082E00E948D00809174
:100A30000804909109040E94700260E082E00E9424
:100A40008D0087E00E9469028FEF0E94690261E0D9
:100A500082E00E948D007AE0A72EB12C8E010F5FFC
:100A60001F4FECE1EE2EE1E0FE2EF5E2CF2EF1E09D
:100A7000DF2E6624639445E0742E55E9352E60E040
:100A8000462E60E0562E3AE0232E912C812C8EE0EB
:100A90000E940A01880E991E2A942110F8CFC401E1
:100AA000B5010E94AB0BCB010E944F027093CB01AA
:100AB0006093CA012AE0222E912C812C8FE00E94A3
:100AC0000A01880E991E2A942110F8CFC401B5019D
:100AD0000E94AB0BCB010E944F027093C90160933F
:100AE000C8019AE0292E912C812C80E10E940A01F4
:100AF000880E991E2A942110F8CFC401B5010E94D6
:100B0000AB0BCB010E944F027093C7016093C601EB
:100B10008090000190900101809108049091090457
:100B20000E94700260E082E00E948D00892D837037
:100B300084600E946902882D0E94690261E082E05F
:100B40000E948D008BE693E00E94A00120912D0170
:100B5000181619060CF0BFC0222309F497C08EE2C4
:100B600091E09093C5018093C4016BE171E0CE01E7
:100B700007960E94010380912E01833409F0BFC0C3
:100B800062E070E08EE291E00E947302BC01C80155
:100B90000E940103B801CE0107960E94C002C8015D
:100BA0000E94F902CE0107960E94B502962E70E0CF
:100BB0006D5F7F4F8091C4019091C5010E947302C7
:100BC000BC01C8010E940103B801CE0107960E9432
:100BD000C002C8010E94F902CE0107960E94B50228
:100BE000262E617084E00E948D0021FA662760F94C
:100BF00083E00E948D0081E0890D882E912C1F9248
:100C00008F93FF92EF921F930F930E94CB0DE09171
:100C1000C401F091C501898182838A8183838B819C
:100C200084831F922F92FF92EF921F930F930E9443
:100C3000CB0DE091C401F091C501880C991C880C82
:100C4000991C8981E80DF91D82838A8183838B81B8
:100C5000848381E291E00E94A3028091C40190917B
:100C6000C5010E94A30283E291E00E94A3020FB695
:100C7000F894DEBF0FBECDBF10922D01CE010796B6
:100C80000E94F90230C090932B015CCF8BE693E079
:100C90000E947E0190912C019923B9F090912B0133
:100CA000E92FF0E0E25DFE4F8C3239F080839F5FE8
:100CB000963948F330922B0145CF108210922C01C7
:100CC00010922B0160922D013DCF813209F03ACF75
:100CD00060922C0137CF8EE291E09093C501809312
:100CE000C401211142CF4114510409F4CCCE0E9419
:100CF000AC01882309F4BFCE0E940000BACE88342C
:100D000009F06DC062E070E08EE291E00E94730233
:100D1000BC01C8010E940103B801CE0107960E94E0
:100D2000C002C8010E94F902CE0107960E94B502D6
:100D3000962E70E06D5F7F4F8091C4019091C50148
:100D40000E947302BC01C8010E940103B801CE01D8
:100D500007960E94C002C8010E94F902CE010796C0
:100D60000E94B502709301016093000181E0890D3A
:100D7000882E912C1F928F93FF92EF921F930F93C7
:100D80000E94CB0DE091C401F091C501898182835D
:100D90008A8183838B8184838091CB018F9380911F
:100DA000CA018F93DF92CF921F930F930E94CB0DB6
:100DB000E091C401F091C50191E0891A9108789CF5
:100DC0009001799C300D11248981E20FF31F8683F5
:100DD0008A8187838B8180878C8181873ACF823417
:100DE00089F562E070E08EE291E00E947302BC013E
:100DF000C8010E940103B801CE0107960E94C002FB
:100E0000C8010E94F902CE0107960E94B5026F5FE9
:100E1000862E912C1F926F93FF92EF921F930F9348
:100E20000E94CB0DE091C401F091C50189818283BC
:100E30008A8183838B8184838091C9018F93809180
:100E4000C801AFCF843509F017CF62E070E08EE2C1
:100E500091E00E947302BC01C8010E940103B80125
:100E6000CE0107960E94C002C8010E94F902CE017D
:100E700007960E94B5026F5F862E912C1F926F938A
:100E8000FF92EF921F930F930E94CB0DE091C4014C
:100E9000F091C501898182838A8183838B818483D8
:100EA0008091C7018F938091C6017BCF8AE094E047
:100EB0000C94F9021F93FC0199278827BC01E89440
:100EC00011911032E9F3193010F01E30C8F31B32C3
:100ED00051F01D3249F4689406C00E94A807610FC2
:100EE000711D811D911D119110531A30B0F33EF404
:100EF00090958095709561957F4F8F4F9F4F1F9173
:100F00000895FA01A191B081009719F41097E1F0CA
:100F1000CD01DC01CD010D90002011F4C00113C002
:100F2000FB012191222319F02015D9F7F3CFFB0102
:100F30002191201519F41E92119606C02223C1F7A3
:100F40000D900020A1F7D001FA01A193B08308957C
:100F5000592F482F372F262F660F771F881F991F6D
:100F6000660F771F881F991F620F731F841F951FBD
:100F7000660F771F881F991F0895ABE0B0E0E3EC80
:100F8000F7E00C94D10A7C013B018A01FC01178235
:100F90001682838181FFC8C1CE0101965C01F701F1
:100FA0009381F30193FD859193FF81913F01882304
:100FB00009F453C1853239F493FD859193FF8191F2
:100FC0003F01853229F4B70190E00E94AD09E7CFD7
:100FD000912C212C312CFFE1F31538F08B3211F1DB
:100FE00090F4803209F1833229F137FC3CC020EDC6
:100FF000280F2A3050F536FE20C08AE0989E200D3A
:101000001124922E06C08D3291F0803371F76894CE
:1010100030F8F30193FD859193FF81913F01811198
:10102000DACF21C0689431F8689432F8F2CF68942E
:1010300033F8EFCF689434F8ECCFEAE02E9E200D21
:101040001124222E689435F8E4CF8E3229F436FC30
:1010500004C1689436F8DDCF8C3619F4689437F8FB
:10106000D8CF8836B1F2982F9F7D95549330E0F019
:101070008336A1F18337C1F1833509F063C02801BC
:10108000F2E04F0E511CF801C080D180692D70E054
:1010900036FC02C06FEF7FEFC6010E9497094C013A
:1010A000689437F882010AC00C5F1F4FFFE3F98391
:1010B00088248394912C6501E89437F833FE2DC081
:1010C000522C8114910471F5552009F468CFB701B1
:1010D00080E290E00E94AD095A94F6CFF801808139
:1010E00089830E5F1F4FE4CF2801F2E04F0E511CA1
:1010F000F801C080D180692D70E036FC02C06FEF2E
:101100007FEFC6010E94A2094C018201D5CFB70131
:1011100080E290E00E94AD092A942814190409F095
:10112000B0F7CECFF60137FC859137FE81916F0184
:10113000B70190E00E94AD0951105A94F1E08F1A66
:101140009108BFCF843619F0893609F077C0F801CD
:1011500037FE6BC060817181828193810C5F1F4F6C
:10116000F32DFF763F2E97FF09C0909580957095DF
:1011700061957F4F8F4F9F4F689437F82AE030E09A
:10118000A5010E94DD09C82ECA188C2C432C36FEFE
:101190000CC0E89440F8C91440F434FE05C032FC99
:1011A00003C0F32DFE7E4F2E892C44FE95C0FE0118
:1011B000EC0DF11D8081803309F087C0242D297E3C
:1011C000422E842D8870582E43FC95C040FE8FC05F
:1011D0009C2C821418F42C0C922C981844FE91C06C
:1011E000B70180E390E00E94AD0942FE09C088E7A4
:1011F00090E041FE02C088E590E0B7010E94AD0991
:10120000C91408F48AC0CA94D12C9FEFC91AD90A0C
:10121000CA0CDB1CF60182916F01B70190E00E94BD
:10122000AD09AC14BD04B1F74FCF60817181072EB9
:10123000000C880B990B0E5F1F4F92CFD32CE894B4
:10124000D4F82AE030E0853739F1232D297FD22EDA
:101250008F3601F148F48835A9F0F701868197812E
:101260002B96E2E10C94ED0A803749F08837A9F714
:10127000D4FE02C06894D2F820E130E00DC068943A
:10128000D4F8F6CF34FE03C0822F8660D82E20E13A
:1012900032E002C028E030E0F801D7FE0FC06081E4
:1012A0007181828193810C5F1F4FA5010E94DD092E
:1012B000C82ECA183D2CE89437F867CF6081718139
:1012C00090E080E00E5F1F4FF0CF42FC02C083949D
:1012D00078CF8394839475CF842D867809F471CF69
:1012E000F6CFB70180E290E00E94AD0983948214AA
:1012F000C0F3512C73CF522C5818821408F46ECFBF
:10130000F8CF842D867809F47BCF8BE241FE80E212
:1013100047FC8DE2B70190E071CFB70180E390E028
:101320000E94AD099A946CCF8FEF9FEF99CFFC018B
:101330000590615070400110D8F7809590958E0F00
:101340009F1F0895FC016150704001900110D8F773
:10135000809590958E0F9F1F08950F931F93CF93A5
:10136000DF93182F092FEB018B8181FD09C01FEF3F
:101370000FEF812F902FDF91CF911F910F91089543
:1013800082FF14C02E813F818C819D8128173907EF
:101390003CF4E881F981CF01019699838883108319
:1013A0008E819F8101969F838E83E3CFE885F985A7
:1013B000812F0995892BA1F3DACFFA01AA272830CA
:1013C00051F1203181F1E8946F936E7F6E5F7F4F12
:1013D0008F4F9F4FAF4FB1E03ED0B4E03CD0670F8E
:1013E000781F891F9A1FA11D680F791F8A1F911DE1
:1013F000A11D6A0F711D811D911DA11D20D009F431
:1014000068943F912AE0269F11243019305D319372
:10141000DEF6CF010895462F4770405D4193B3E05B
:101420000FD0C9F7F6CF462F4F70405D4A3318F002
:10143000495D31FD4052419302D0A9F7EACFB4E0B3
:10144000A6959795879577956795BA95C9F700976B
:101450006105710508959B01AC010A2E069457950C
:10146000479537952795BA95C9F7620F731F841F63
:10147000951FA01D0895E89409C097FB3EF4909530
:101480008095709561957F4F8F4F9F4F9923A9F05D
:10149000F92F96E9BB279395F695879577956795EC
:1014A000B795F111F8CFFAF4BB0F11F460FF1BC030
:1014B0006F5F7F4F8F4F9F4F16C0882311F096E9C3
:1014C00011C0772321F09EE8872F762F05C0662371
:1014D00071F096E8862F70E060E02AF09A95660F2A
:1014E000771F881FDAF7880F9695879597F90895E3
:1014F00097F99F6780E870E060E008959FEF80ECC7
:10150000089500240A941616170618060906089569
:1015100000240A9412161306140605060895092ECF
:101520000394000C11F4882352F0BB0F40F4BF2B3E
:1015300011F460FF04C06F5F7F4F8F4F9F4F08957E
:1015400057FD9058440F551F59F05F3F71F0479574
:10155000880F97FB991F61F09F3F79F08795089559
:10156000121613061406551FF2CF4695F1DF08C078
:10157000161617061806991FF1CF86957105610595
:1015800008940895E894BB2766277727CB0197F93D
:101590000895F999FECF92BD81BDF89A992780B53B
:1015A00008952F923F924F925F926F927F928F9207
:1015B0009F92AF92BF92CF92DF92EF92FF920F93E2
:1015C0001F93CF93DF93CDB7DEB7CA1BDB0B0FB6EC
:1015D000F894DEBF0FBECDBF09942A8839884888A9
:1015E0005F846E847D848C849B84AA84B984C8843F
:1015F000DF80EE80FD800C811B81AA81B981CE0F36
:10160000D11D0FB6F894DEBF0FBECDBFED0108951A
:101610005058BB27AA270E94200B0C948F0A0E94C7
:10162000810A38F00E94880A20F039F49F3F19F4AB
:1016300026F40C947E0A0EF4E095E7FB0C94780AED
:10164000E92F0E94A00A58F3BA17620773078407AC
:10165000950720F079F4A6F50C94C20A0EF4E095F3
:101660000B2EBA2FA02D0B01B90190010C01CA015C
:10167000A0011124FF27591B99F0593F50F4503E07
:1016800068F11A16F040A22F232F342F4427585FF9
:10169000F3CF469537952795A795F0405395C9F711
:1016A0007EF41F16BA0B620B730B840BBAF09150C9
:1016B000A1F0FF0FBB1F661F771F881FC2F70EC068
:1016C000BA0F621F731F841F48F48795779567953B
:1016D000B795F7959E3F08F0B0CF9395880F08F027
:1016E0009927EE0F9795879508950E947C0B689433
:1016F000B1110C94C30A08950E94A80A88F09F575C
:1017000098F0B92F9927B751B0F0E1F0660F771F25
:10171000881F991F1AF0BA95C9F714C0B13091F01B
:101720000E94C20AB1E008950C94C20A672F782F74
:101730008827B85F39F0B93FCCF3869577956795E0
:10174000B395D9F73EF490958095709561957F4F4C
:101750008F4F9F4F089597FB072E16F4009407D0E4
:1017600077FD09D00E94BF0B07FC05D03EF4909591
:1017700081959F4F0895709561957F4F0895AA1B9D
:10178000BB1B51E107C0AA1FBB1FA617B70710F06C
:10179000A61BB70B881F991F5A95A9F7809590959E
:1017A000BC01CD010895EE0FFF1F0590F491E02DCF
:1017B00009940F931F93CF93DF938230910510F418
:1017C00082E090E0E0911204F091130430E020E018
:1017D000B0E0A0E0309799F42115310509F44AC032
:1017E000281B390B24303105D8F58A819B8161157E
:1017F000710589F1FB0193838283FE0111C0408151
:1018000051810281138148175907E0F048175907A1
:1018100099F4109761F012960C93129713961C93FB
:101820003296CF01DF91CF911F910F9108950093D0
:10183000120410931304F4CF2115310551F042170F
:10184000530738F0A901DB019A01BD01DF01F8015E
:10185000C1CFEF01F9CF9093130480931204CDCF41
:10186000FE01E20FF31F81939193225031093983D6
:101870002883D7CF2091100430911104232B41F4F9
:10188000209104013091050130931104209310043C
:1018900020910201309103012115310541F42DB74A
:1018A0003EB74091060150910701241B350BE09192
:1018B0001004F0911104E217F307A0F42E1B3F0B64
:1018C0002817390778F0AC014E5F5F4F24173507B2
:1018D00048F04E0F5F1F5093110440931004819302
:1018E00091939FCFF0E0E0E09CCFCF93DF93009700
:1018F000E9F0FC01329713821282A0911204B09198
:101900001304ED0130E020E01097A1F42081318133
:10191000820F931F2091100430911104281739076A
:1019200009F061C0F0931104E0931004DF91CF91AE
:101930000895EA01CE17DF07E8F54A815B819E0131
:1019400041155105B1F7E901FB83EA8349915991AA
:10195000C40FD51FEC17FD0761F4808191810296B9
:10196000840F951FE90199838883828193819B83EA
:101970008A83F0E0E0E012968D919C911397009796
:10198000B9F52D913C911197CD010296820F931FCD
:1019900020911004309111042817390739F6309737
:1019A00051F51092130410921204B0931104A093F5
:1019B0001004BCCFD383C28340815181840F951F13
:1019C000C817D90761F44E5F5F4F88819981480F2E
:1019D000591F518340838A819B8193838283211580
:1019E000310509F0B0CFF0931304E09312049ECFB9
:1019F000FD01DC01C0CF13821282D7CFB0E0A0E09E
:101A0000E4E0FDE00C94D30A8C01009751F4CB0183
:101A10000E94D90B8C01C801CDB7DEB7E0E10C9470
:101A2000EF0AFC01E60FF71F9C0122503109E21773
:101A3000F30708F49DC0D901CD91DC911197C61729
:101A4000D70798F0C530D10530F3CE01049786173B
:101A5000970708F3C61BD70B2297C193D1936D93B9
:101A60007C93CF010E94750CD6CF5B01AC1ABD0AE6
:101A70004C018C0E9D1EA0911204B0911304512CA8
:101A8000412CF12CE12C109731F5809110049091AC
:101A900011048815990509F05CC04616570608F030
:101AA00058C08091020190910301009741F48DB7D5
:101AB0009EB74091060150910701841B950BE817D2
:101AC000F90708F055C0F0931104E0931004F901F0
:101AD00071836083A0CF8D919C91119712966C9029
:101AE000129713967C901397A815B90559F56C01B8
:101AF00042E0C40ED11CCA14DB0420F1AC014A1927
:101B00005B09DA011296159780F062827382518325
:101B10004083D9016D937C93E114F10471F0D701F6
:101B20001396FC93EE93129776CF22968C0F9D1FFF
:101B3000F90191838083F301EFCFF0931304E093D5
:101B4000120469CF4816590608F42C017D01D3010F
:101B50009ACFCB010E94D90B7C01009749F0AE01CE
:101B6000B8010E94BB0DC8010E94750C870153CFBC
:101B700010E000E050CFFB01DC0102C001900D92AB
:101B800041505040D8F70895FB01DC0101900D92BF
:101B90000020E1F70895AEE0B0E0E1EDFDE00C9447
:101BA000DF0A0D891E8986E08C831A8309838FEFF3
:101BB0009FE79E838D83AE01475E5F4F6F89788D6F
:101BC000CE0101960E94BD072F813885020F131F99
:101BD000F80110822E96E4E00C94FB0A10E0C2E6B5
:101BE000D0E004C0FE010E94D30B2196C336D1077A
:061BF000C9F7F894FFCFD5
:101BF600FF0300001404800000000000E20142011F
:101C06006F012F02A0017E0192012000253033646E
:0A1C16000021002C0025303464008A
:00000001FF
